:030000000203D127
:0C03D100787FE4F6D8FD758173020418F3
:100737006C313437646F753032353872333639621D
:100503001117202020202020202020202020202000
:10051300202000083E312F54696D65720007463272
:100523002F446F776E00070954696D696E67000683
:0705330010456E74657200B3
:10001E00758901758CEC758A78758DD8758BF0D2D3
:10002E00AFD2A9D28CD2AFD2AAD2BAD28AD2A8D209
:10003E0088D2ABD28ED2BBC2A11206DCD2B6C2B768
:10004E00E4F52DF516F528F5087F05FE1206667BFC
:10005E00007A00793E12054A7B007A007946120535
:10006E0086E51614604414607B240260030201BE10
:10007E00C2AFE52FB43106751601752D01E536B404
:10008E003206751602752D01E54D7019FB7A007951
:10009E003E12054A7B007A007946120586754D019F
:1000AE00E4F52DF516D2AF0201BEC2AFE52DB401B7
:1000BE00187B007A00790912054A7B007A007917BD
:1000CE00120586E4F52D751601E53364586010753A
:1000DE002801E4F54EF54FF529F52AF52BF52CD22E
:1000EE00AF0201BEE52DB4011CC2AF7B007A0079D0
:1000FE001012054A7B007A007917120586E4F52D59
:10010E00751602D2AFE4F552742E2552F8E6FF644E
:10011E005860028F2A0552E552B410ECE53364584C
:10012E00600CC2AF752802E4F54EF54FD2AFE52A4A
:10013E0024D0B40A00507990015375F003A4C583FE
:10014E0025F0C5837302017102017802018002015C
:10015E00880201900201980201A00201A80201B0DA
:10016E000201B8E4F550F5518046755000755164A2
:10017E00803E7550007551C8803675500175512CF2
:10018E00802E75500175519080267550017551F471
:10019E00801E75500275515880167550027551BCEF
:1001AE00800E75500375512080067550037551846D
:1001BE00854E53854F54E52864017036F552AE5383
:1001CE00AF547C007D0A120356C374039552242942
:1001DE00F8A605AE53AF547C007D0A1203568E531B
:1001EE008F540552E552B404D57B007A007929125A
:1001FE000250E5286402600302006FC3E551954F7B
:10020E00F554E550954EF553E4F552AE53AF547C8C
:10021E00007D0A120356C3740395522429F8A605CD
:10022E00AE53AF547C007D0A1203568E538F540585
:10023E0052E552B404D57B007A007929120250029D
:02024E00006F3F
:03000B0002045D8F
:10045D00C0E0C0F0C083C082C0D075D000C000C065
:10046D0001C002C003C004C005C006C0077B007AEE
:10047D000079291202501204B07B007A00792912FA
:10048D000250758C15758AA0D007D006D005D00402
:10049D00D003D002D001D000D0D0D082D083D0F004
:0304AD00D0E0326A
:03001B00020628B2
:10062800C0E0C0D00508E508B41119750800054FE9
:10063800E54F7002054EB40F0BE54EB42706754E14
:0F06480000754F00758D3C758BB0D0D0D0E0326F
:03000300020711E0
:10071100752800750800754E00754F0075500075FD
:0307210051003252
:03001300020724BD
:10072400751600754D00752900752A00752B007526
:030734002C003264
:1004B000C2B67F017E00120666D2B6E4F55AA2B536
:1004C000E433FF742E255AF8A607C2B77F017E00D9
:1004D000120666D2B7055AE55AC3941040E0E4F517
:1004E0005A742E255AF8E6B40107E55A9007379357
:1004F000F6742E255AF8E670027658055AE55AB475
:0205000010DF0A
:0105020022D6
:03053A0001730149
:0F065700F5807F057E00120666D2A27F057E0029
:10066600D3EF9400EE940040147D6E7C00ED1D7077
:0D067600011CED4C70F7EF1F70E61E80E3D5
:010683002254
:0A074700C2A08F80120659C2A22240
:0A075100D2A08F80120659C2A22226
:0605C2008B698A6A896B57
:1005C8007F80120747D2A0E4F56CF56DAB69AA6A83
:1005D800A96B856D82856C83120329600F120657FB
:0C05E800C2A2056DE56D70E4056C80E0BA
:0105F40022E4
:06054A008B558A5689570B
:100550007F0A1207477F80120747D2A0E4F558F5BB
:1005600059AB55AA56A95785598285588312032934
:10057000600F120657C2A20559E55970E40558806C
:06058000E07F0E020747B8
:0605F5008B6E8A6F897015
:1005FB007FC0120747D2A0E4F571F572AB6EAA6FFC
:10060B00A970857282857183120329600F120657B8
:0C061B00C2A20572E57270E4057180E077
:0106270022B0
:060586008B558A568957CF
:10058C007F0A1207477FC0120747D2A0E4F558F53F
:10059C0059AB55AA56A957855982855883120329F8
:1005AC00600F120657C2A20559E55970E405588030
:0605BC00E07F0E0207477C
:1006F700EF64016003BF01047F18800AEF640260A2
:0A07070003BF02057F1C1207472202
:1006A200E4FBFA7F0A1207477F181207470BBB00C9
:0D06B200010AEB64104A70F07F0E0207474A
:1006BF00E4FBFA7F0A1207477F1C1207470BBB00A8
:0D06CF00010AEB64104A70F07F0E0207472D
:050006007F1402074712
:05000E007F100207470E
:1006DC00C2A27F381207477F0F1207477F06120707
:0B06EC00477F011207477F0E020747FF
:0C053D000A5F3F065B4F666D7D077F6F15
:10068400D3EF9400EE940040147D6E7C00ED1D7059
:0D069400011CED4C70F7EF1F70E61E80E3B7
:0106A1002236
:060250008B5A8A5B895CF9
:10025600E4F55DAB5AAA5BA95C855D8275830012E5
:1002660003291203AB02BD0002C20102C70202CC7F
:100276000302D10402D60502DB0602E00702E50806
:1002860002EA0902AB3002AD3102AF3202B13302EB
:10029600B33402B53502B73602B93702BB3802EAC3
:1002A60039000002ED8010801380168019801C80B2
:1002B6001F802280258028E4F55E802B755E0180F4
:1002C60026755E028021755E03801C755E048017AC
:1002D600755E058012755E06800D755E0780087571
:1002E6005E088003755E09E55D6402700A745F2529
:1002F6005EF8E624808006745F255EF8E6F590E5F4
:100306005DC31324FF92A3E55D1392A47F047E00D0
:10031600120684E4F590055DE55DC394045003027E
:0203260002597A
:0103280022B2
:1003DD0002001EE493A3F8E493A34003F68001F218
:1003ED0008DFF48029E493A3F85407240CC8C33321
:1003FD00C4540F4420C8834004F456800146F6DFF0
:10040D00E4800B0102040810204080900503E47E77
:10041D00019360BCA3FF543F30E509541FFEE493E4
:10042D00A360010ECF54C025E060A840B8E493A3AB
:10043D00FAE493A3F8E493A3C8C582C8CAC583CAD6
:10044D00F0A3C8C582C8CAC583CADFE9DEE780BE8E
:0105490000B1
:10032900BB010CE58229F582E5833AF583E0225089
:1003390006E92582F8E622BBFE06E92582F8E222D3
:0D034900E58229F582E5833AF583E49322ED
:10035600BC000BBE0029EF8DF084FFADF022E4CC8B
:10036600F875F008EF2FFFEE33FEEC33FCEE9DEC54
:10037600984005FCEE9DFE0FD5F0E9E4CEFD22ED9A
:10038600F8F5F0EE8420D21CFEADF075F008EF2FE4
:10039600FFED33FD4007985006D5F0F222C398FDD5
:0503A6000FD5F0EA2272
:1003AB00D083D082F8E4937012740193700DA3A3E1
:1003BB0093F8740193F5828883E4737402936860F5
:0603CB00EFA3A3A380DFF5
:00000001FF
